:020000040000fa
:080000000002040000000000f2
:020000040000fa
:04000800ae04000042
:020000040000fa
:04000c00ae0400003e
:020000040000fa
:04001000ae0400003a
:020000040000fa
:04001400ae04000036
:020000040000fa
:04001800ae04000032
:020000040000fa
:04001c00ae0400002e
:020000040000fa
:04002000ae0400002a
:020000040000fa
:04002400ae04000026
:020000040000fa
:04002800ae04000022
:020000040000fa
:04002c00ae0400001e
:020000040000fa
:04003000ae0400001a
:020000040000fa
:04003400ae04000016
:020000040000fa
:04003800ae04000012
:020000040000fa
:04003c00ae0400000e
:020000040000fa
:04004000ae0400000a
:020000040000fa
:040044007e04000036
:020000040000fa
:04004800ae04000002
:020000040000fa
:04004c00ae040000fe
:020000040000fa
:04005000ae040000fa
:020000040000fa
:04005400ae040000f6
:020000040000fa
:04005800ae040000f2
:020000040000fa
:04005c00ae040000ee
:020000040000fa
:04006000ae040000ea
:020000040000fa
:04006400ae040000e6
:020000040000fa
:04006800ae040000e2
:020000040000fa
:04006c00ae040000de
:020000040000fa
:04007000ae040000da
:020000040000fa
:04007400c8020000be
:020000040000fa
:04007800ae040000d2
:020000040000fa
:04007c00ae040000ce
:020000040000fa
:04008000ae040000ca
:020000040000fa
:04008400ae040000c6
:020000040000fa
:04008800ae040000c2
:020000040000fa
:04008c00ae040000be
:020000040000fa
:04009000ae040000ba
:020000040000fa
:04009400ae040000b6
:020000040000fa
:04009800ae040000b2
:020000040000fa
:04009c00ae040000ae
:020000040000fa
:0400a00090040000c8
:020000040000fa
:0400a400a6040000ae
:020000040000fa
:0400a800ae040000a2
:020000040000fa
:0400ac00ae0400009e
:020000040000fa
:0400b000ae0400009a
:020000040000fa
:0400b400ae04000096
:020000040000fa
:0400b800ae04000092
:020000040000fa
:0400bc00ae0400008e
:020000040000fa
:0400c000ae0400008a
:020000040000fa
:0400c400ae04000086
:020000040000fa
:0400c800ae04000082
:020000040000fa
:0400cc00ae0400007e
:020000040000fa
:0400d000ae0400007a
:020000040000fa
:0400d400ae04000076
:020000040000fa
:0400d800ae04000072
:020000040000fa
:0400dc00ae0400006e
:020000040000fa
:0400e000ae0400006a
:020000040000fa
:0400e400ae04000066
:020000040000fa
:0400e800ae04000062
:020000040000fa
:0400ec00ae0400005e
:020000040000fa
:0400f000ae0400005a
:020000040000fa
:0400f400ae04000056
:020000040000fa
:0400f800ae04000052
:020000040000fa
:0400fc00ae0400004e
:020000040000fa
:04010000ae04000049
:020000040000fa
:04010400ae04000045
:020000040000fa
:04010800ae04000041
:020000040000fa
:04010c00ae0400003d
:020000040000fa
:04011000ae04000039
:020000040000fa
:04011400ae04000035
:020000040000fa
:04011800ae04000031
:020000040000fa
:04011c00ae0400002d
:020000040000fa
:04012000ae04000029
:020000040000fa
:04012400ae04000025
:020000040000fa
:04012800ae04000021
:020000040000fa
:04012c00ae0400001d
:020000040000fa
:04013000ae04000019
:020000040000fa
:04013400ae04000015
:020000040000fa
:04013800ae04000011
:020000040000fa
:04013c00ae0400000d
:020000040000fa
:04014000ae04000009
:020000040000fa
:04014400ae04000005
:020000040000fa
:04014800ae04000001
:020000040000fa
:04014c00ae040000fd
:020000040000fa
:04015000ae040000f9
:020000040000fa
:04015400ae040000f5
:020000040000fa
:04015800ae040000f1
:020000040000fa
:04015c00ae040000ed
:020000040000fa
:04020800ae04000040
:020000040000fa
:04020c00ae0400003c
:020000040000fa
:04021000ae04000038
:020000040000fa
:04021400ae04000034
:020000040000fa
:04021800ae04000030
:020000040000fa
:04021c00ae0400002c
:020000040000fa
:04022000ae04000028
:020000040000fa
:04022400ae04000024
:020000040000fa
:04022800ae04000020
:020000040000fa
:04022c00ae0400001c
:020000040000fa
:04023000ae04000018
:020000040000fa
:04023400ae04000014
:020000040000fa
:04023800ae04000010
:020000040000fa
:04023c00ae0400000c
:020000040000fa
:04024000ae04000008
:020000040000fa
:040244007e04000034
:020000040000fa
:04024800ae04000000
:020000040000fa
:04024c00ae040000fc
:020000040000fa
:04025000ae040000f8
:020000040000fa
:04025400ae040000f4
:020000040000fa
:04025800ae040000f0
:020000040000fa
:04025c00ae040000ec
:020000040000fa
:04026000ae040000e8
:020000040000fa
:04026400ae040000e4
:020000040000fa
:04026800ae040000e0
:020000040000fa
:04026c00ae040000dc
:020000040000fa
:04027000ae040000d8
:020000040000fa
:04027400c8020000bc
:020000040000fa
:04027800ae040000d0
:020000040000fa
:04027c00ae040000cc
:020000040000fa
:04028000ae040000c8
:020000040000fa
:04028400ae040000c4
:020000040000fa
:04028800ae040000c0
:020000040000fa
:04028c00ae040000bc
:020000040000fa
:04029000ae040000b8
:020000040000fa
:04029400ae040000b4
:020000040000fa
:04029800ae040000b0
:020000040000fa
:04029c00ae040000ac
:020000040000fa
:0402a00090040000c6
:020000040000fa
:0402a400a6040000ac
:020000040000fa
:0402a800ae040000a0
:020000040000fa
:0402ac00ae0400009c
:020000040000fa
:0402b000ae04000098
:020000040000fa
:0402b400ae04000094
:020000040000fa
:0402b800ae04000090
:020000040000fa
:0402bc00ae0400008c
:020000040000fa
:0402c000ae04000088
:020000040000fa
:0402c400ae04000084
:020000040000fa
:0402c800ae04000080
:020000040000fa
:0402cc00ae0400007c
:020000040000fa
:0402d000ae04000078
:020000040000fa
:0402d400ae04000074
:020000040000fa
:0402d800ae04000070
:020000040000fa
:0402dc00ae0400006c
:020000040000fa
:0402e000ae04000068
:020000040000fa
:0402e400ae04000064
:020000040000fa
:0402e800ae04000060
:020000040000fa
:0402ec00ae0400005c
:020000040000fa
:0402f000ae04000058
:020000040000fa
:0402f400ae04000054
:020000040000fa
:0402f800ae04000050
:020000040000fa
:0402fc00ae0400004c
:020000040000fa
:04030000ae04000047
:020000040000fa
:04030400ae04000043
:020000040000fa
:04030800ae0400003f
:020000040000fa
:04030c00ae0400003b
:020000040000fa
:04031000ae04000037
:020000040000fa
:04031400ae04000033
:020000040000fa
:04031800ae0400002f
:020000040000fa
:04031c00ae0400002b
:020000040000fa
:04032000ae04000027
:020000040000fa
:04032400ae04000023
:020000040000fa
:04032800ae0400001f
:020000040000fa
:04032c00ae0400001b
:020000040000fa
:04033000ae04000017
:020000040000fa
:04033400ae04000013
:020000040000fa
:04033800ae0400000f
:020000040000fa
:04033c00ae0400000b
:020000040000fa
:04034000ae04000007
:020000040000fa
:04034400ae04000003
:020000040000fa
:04034800ae040000ff
:020000040000fa
:04034c00ae040000fb
:020000040000fa
:04035000ae040000f7
:020000040000fa
:04035400ae040000f3
:020000040000fa
:04035800ae040000ef
:020000040000fa
:04035c00ae040000eb
:020000040000fa
:100400000f8220000edf20000e0188000000000097
:10041000000020000000e000020032000001200087
:1004200020028800140007004e0107000000e000d1
:1004300003003a00a0b220000100200002003700b3
:100440000000200001002000810f70000100320038
:1004500014000700000020000000e000020032004d
:1004600000000200000000004e0b0200000000002f
:100470000040da000000fe004440a9000016200001
:100480000000e0000300320000002000a00188000e
:100490004440a800000006008a1f78008b1f7800e7
:1004a0000000060091018800800478000000eb0045
:1004b0001a003700e284440032a0b4009905ba0063
:1004c000e284440032a0b4009906ba00e2844400f9
:1004d00032a0b4000006eb00476fde00fd07b2005b
:1004e000636ce10003003a00ebff07000000eb0043
:1004f0000a003700606ce10004003a00005deb0088
:100500008b05e900fdff3e00040037006168e10053
:10051000010032000086eb000b00070019c7ba008b
:100520001905ba000e04e00003003a000a00e000da
:10053000e0ff3a0000000600fe07b2009e018800be
:100540008a047800f5ff3700395dba008b05e900b1
:100550000c003200295dba008b05e900080032006a
:100560000c00e00003003a00e284440032a0b40032
:10057000f5ff370019ddba008b05e900faff3a00f4
:100580008904e800e184440032a0b40000000600c1
:100590003600f800809fbe00829fbe00849fbe0090
:1005a000869fbe003400f80000002000a0018800f3
:1005b0000000fa00803e2000010020000d0407002a
:1005c000d0408000e10f500080003a0000408000e1
:1005d0000000e0000b003a00104080000000e00046
:1005e00008003a00204080000000e00005003a00ca
:1005f0001a28ef000c28ef00105d280048030700c0
:100600006a003700004080000000e00015003a005a
:1006100010408000e10f500012003a00204080009e
:10062000e10f50000f003a0060408000e10f5000e1
:100630000300320060408000e40f500006003a00e2
:10064000b040800036030700c05e28003403070076
:100650000c28ef0055003700100020006040880093
:100660005200370000408000e10f500015003a00b2
:10067000104080000000e00012003a00204080009e
:10068000e10f50000f003a0060408000e20f500080
:100690000300320060408000e40f500006003a0082
:1006a000b04080001e030700c05e28001c03070046
:1006b0000c28ef003d00370020002000604088003b
:1006c0003a00370000408000e10f500015003a006a
:1006d00010408000e10f500012003a0020408000de
:1006e0000000e0000f003a0060408000e30f50007f
:1006f0000300320060408000e40f500006003a0022
:10070000b040800006030700c05e28000403070015
:100710000c28ef00250037003000200060408800e2
:1007200022003700004080000000e00006003a0090
:10073000104080000000e00003003a0020408000ec
:10074000e10f500012003200004080000000e00085
:1007500006003a0010408000e10f500003003a000c
:10076000204080000000e0000900320000408000ce
:10077000e10f50000d003a00104080000000e00042
:100780000a003a00204080000000e00007003a0024
:1007900060408000e40f5000030032004000200061
:1007a00060408800010037000c28ef001000200096
:1007b00030408800100020004040880010002000d9
:1007c000504088008660a90044003700d040800077
:1007d0000000e00041003a00004080000000e0001e
:1007e0000c003a00104080000000e00009003a00d0
:1007f000204080000000e00006003a0010002000c9
:10080000d04088000c28ef00305f2800c4020700a9
:100810002b003700004080000000e00012003a008a
:1008200010408000e10f50000f003a00204080008f
:10083000e10f50000c003a0060408000e10f5000d2
:1008400006003a00c0408000b5020700c05e2800e4
:10085000b30207000c28ef00190037001000200039
:10086000604088001600370000408000e10f500013
:1008700012003a00104080000000e0000f003a0033
:1008800020408000e10f50000c003a0060408000e2
:10089000e20f500006003a00c0408000a0020700ae
:1008a000c05e28009e0207000c28ef0004003700fd
:1008b0002000200060408800010037000c28ef0075
:1008c00010002000304088001000200040408800c8
:1008d00010002000504088008660a9000080fa00c7
:1008e0003400f9004f03be004f02be004f01be00ae
:1008f0004f00be003600f90000400600801f78005f
:100900000000fa0084e0a90011e1a9001000200015
:10091000e04088000080fa004f00780000400600a8
:10092000801f78000000fa0087c0a900b011800085
:10093000004078001ee8b70010c0b3001fe8b70001
:100940000080fa004f007800004006000000fa0026
:1009500087e0a9000080fa00004006000040da00ad
:100960000000fe0000000500800078000400370051
:100970003104e00002003a000000510000000600cf
:10098000010178000108a300f9ff3a008101780015
:1009900031017800f4ef2f00020242000281ea00e8
:1009a000020162000408280004016100f7ff320020
:1009b00083007800010178003104e000fdff3a0077
:0809c0000000510000000600d8
:020000040000fa
:1009c800494400004c45000000500000423100003e
:1009d800207700006173000020700000726500003d
:1009e800737300006564000000500000423200008c
:1009f800207700006173000020700000726500001d
:100a0800737300006564000000500000423300006a
:100a180020770000617300002070000072650000fc
:100a280073730000656400000046000061730000f5
:100a3800742000004d6f0000646500003a2000003b
:100a4800005300006c6f0000772000004d6f00001d
:100a5800646500003a2000000050000042330000a6
:100a68003a200000494400004c45000020000000e6
:100a780020500000423100002026000020500000d5
:100a8800423200002070000072650000737300009d
:100a9800656400002e2000004c4500004420000042
:100aa8006f6e0000202800004e6f000020420000fa
:100ab8006c6900006e6b0000696e00006729000019
:100ac8002e200000005000004220000031200000cd
:100ad800616e0000642000005042000020320000d7
:100ae800206100007265000020700000726500003f
:100af800737300006564000000500000422000008d
:100b080031200000616e00006420000050420000a7
:100b18002033000020610000726500002070000092
:100b280072650000737300006564000000500000e7
:100b38004220000032200000616e000064200000a6
:100b48005042000020330000206100007265000060
:100b58002070000072650000737300006564000077
:100b680000200000547700006f2000005042000071
:100b78007320000070720000657300007365000048
:100b880064200000746f000067650000746800004e
:100b9800657200002e200000002000004d6f00004c
:100ba8006465000020630000686100006e67000053
:100bb80065640000207400006f200000736c000062
:100bc8006f7700004d6f0000646500002000000092
:100bd80020490000444c000045200000002000008f
:100be8004d6f00006465000020630000686100002c
:100bf8006e67000065640000207400006f2000002c
:100c080066610000737400004d6f000064650000a9
:100c180020000000486500006c6c00006f2c00008c
:100c2800204f00007572000020500000726f000015
:100c380067720000616d00002069000073200000e9
:100c48007374000061720000746900006e67000030
:100c58003a2000002e2e00002e2e00002e2e00001e
:100c68002e2e0000000000000a7400006f6f0000c4
:100c7800206c00006f6e0000670a00000d00000085
:020000040000fa
:100c88000000fa00c082a8006800a8006000a80060
:100c9800c882a8006820a8006020a800c042a80058
:100ca8006bc0a80063c0a800c902a9000080eb00bf
:100cb8006019880061058000f0ff280080806000ce
:100cc8000000260001007000600588008660a90009
:100cd8009660a80081e0a9000080fa0000000600e4
:100ce8000000fa000c000700d0408000e10f50001f
:100cf80002003a00820007000140fe00d040800058
:100d08000000e00002003a00150007000140fe0064
:100d18000080fa00000006000000fa0010168000ab
:100d28004200de00614060000080fb000040880057
:100d3800101680004400de00614060000080fb0067
:100d480010408800501680004400de0061406000ba
:100d58000080fb00204088000080fa0000000600a8
:100d68000000fa00ecff0700004080000000e000ef
:100d78001c003a0010408000e10f500019003a00b2
:100d880020408000e10f500016003a00c04080006b
:100d980061010700804080005f010700a00f20006c
:100da800010020001102070008003700cd02a8004a
:100db80080382100010020000c020700cd02a900a4
:100dc80080382100010020000802070060408000f0
:100dd8000000e000f5ff3a00a00f2000010020000d
:100de8000202070000408000e10f50001c003a009a
:100df800104080000000e00019003a002040800008
:100e0800e10f500016003a00c04080004201070080
:100e18009040800040010700a00f20000100200042
:100e2800f201070008003700cd02a80080bb2000af
:100e380001002000ed010700cd02a90080bb2000c1
:100e480001002000e9010700604080000000e00088
:100e5800f5ff3a00a00f200001002000e301070081
:100e680000408000e10f50000a003a001040800066
:100e7800e10f500007003a00204080000000e00029
:100e880004003a00c04080002301070010532800e6
:100e980021010700004080000000e00015003a0032
:100ea800104080000000e00012003a00204080005e
:100eb800e10f50000f003a00c04080001601070003
:100ec800c053280014010700a00f200001002000d3
:100ed800c6010700cd02a8008038210001002000cb
:100ee800c2010700a00f200001002000bf01070079
:100ef80001003700cd02a9000080fa0000000600ba
:100f08000000fa0084ff0700004080000000e000b5
:100f180006003a00104080000000e00003003a009c
:100f280020408000e10f5000120032000040800095
:100f38000000e00006003a0010408000e10f500079
:100f480003003a00204080000000e0000900320061
:100f580000408000e10f50003b003a001040800044
:100f68000000e00038003a00204080000000e00067
:100f780035003a00cd02a800b0408000e600070026
:100f8800004080000000e00008003a0010408000a7
:100f98000000e00005003a0020408000e10f50000a
:100fa80002003a0070562800db000700004080006d
:100fb8000000e00008003a0010408000e10f5000f7
:100fc80005003a00204080000000e00002003a00de
:100fd80010582800d000070000408000e10f5000a2
:100fe8000e003a00104080000000e0000d003a00ba
:100ff800204080000000e0000c003a00b0592800b2
:10100800c50007000a003700cd02a8001000200024
:1010180001002000750107000500370000000000ee
:101028000300370000000000010037000000000046
:1010380060408000e40f5000f3ff3200a00f200052
:101048000100200069010700004080000000e00066
:101058001c003a0010408000e10f500019003a00cf
:1010680020408000e10f500016003a00a00f200039
:10107800010020005d010700b0408000a6000700c5
:1010880080408000a400070008003700cd02a800b7
:10109800a00f20000100200054010700cd02a90084
:1010a800a00f2000010020005001070060408000d0
:1010b8000000e000f5ff3a00a00f2000010020002a
:1010c8004a01070000408000e10f50001c003a0070
:1010d800104080000000e00019003a002040800025
:1010e800e10f500016003a00b04080008a00070067
:1010f8009040800088000700a00f20000100200019
:101108003a01070008003700cd02a800401f200060
:101118000100200035010700cd02a900401f200072
:101128000100200031010700604080000000e0005d
:10113800f5ff3a00a00f2000010020002b01070056
:1011480000408000e10f50001c003a001040800071
:10115800e10f500019003a00204080000000e00034
:1011680016003a00b04080006b000700a0408000e5
:1011780069000700a00f2000010020001b010700e4
:1011880008003700cd02a800803e200001002000a2
:1011980016010700cd02a900803e200001002000b2
:1011a80012010700604080000000e000f5ff3a00ef
:1011b800a00f2000010020000c0107000040800063
:1011c8000000e0001d003a00104080000000e00030
:1011d8001a003a0020408000e10f500017003a0042
:1011e800b04080004c000700505b28004a00070010
:1011f800a00f200001002000fc00070008003700b5
:10120800cd02a8001000200001002000f700070010
:10121800cd02a9001000200001002000f300070003
:10122800604080000000e000f5ff3a00a00f2000b9
:1012380001002000ed00070001003700cd02a900e1
:101248000080fa00000006000000fa00c802a900a9
:10125800c822a800cc02a80031a2a9003182a900a6
:101268003162a90081118000f0cf2f00008060005a
:101278008011880030e2a90030c2a90030a2a9007c
:101288003082a9003062a8008111800090ff2f00f1
:1012980000806000801188003002a900c000200092
:1012a800c011880033e2a90033a2a80033c2a90004
:1012b8003362a9003342a90091118000f0f32f0096
:1012c800008060009011880032a2a90087e0a90080
:1012d80091058000f0ff2800808060000000230056
:1012e800010070009005880097e0a80087c0a90059
:1012f80091058000f08f2f000080600000a0a00002
:101308009005880097c0a80031e2a8003342a800e1
:101318000080fa00000006000400fa001007980098
:101328000000eb00000f7800060037001e00900058
:101338001e00400010407800110020000700070040
:101348001e0fe8001e00900085fd07009e0f50004c
:10135800f6ff31000080fa00000006000400fa00e1
:10136800004f7800110798003342a8000b0037009f
:101378000000000091118000002020000080600023
:101388000000e000fbff3a001e00fb00a0118800ef
:101398001e0090000000e900100798001e00900051
:1013a8000000e000f2ff3a00000000009111800008
:1013b80000102000008060000000e000fbff320009
:1013c8003342a9000080fa00000006000800fa0075
:1013d80020079800614798000000eb00000f780094
:1013e800210037001fc8bf00e14f50001e003a001f
:1013f8001ec8bf00ff4f500018003600e1812000d2
:1014080091407800e0c7b30080cf500013003e0041
:101418006e4090000080fb000080e9009e0f5000a5
:101428000400310080632800bbff07001f68ef003d
:10143800100037002e0090001e004000e1812000bf
:1014480091407800014878001e0fe8001ec8bf00d0
:1014580011002000c1ff07003222a9001ec8bf00ea
:10146800204798001f68ef002e409000ed4f500075
:10147800dcff3a000080fa00000006000200fa00d3
:101488001100200000c2b300b4ff07001b003700a2
:101498001fc8bf00e14f500018003a001ec8bf0027
:1014a800ed4f500003003a001f68ef001e4078001f
:1014b800150037001ec8bf00ff4f50000d00360052
:1014c800e181200091407800e0c7b30080cf500050
:1014d80008003e001100200080c0b3009fff0700f5
:1014e8001ec8bf00004f78001ec8bf0011002000b2
:1014f8009aff07003222a9001f68ef001e407800fb
:10150800ed4f5000e2ff3a000080fa0000000600ac
:101518000400fa00100798001e0090000102200045
:10152800810f50000b003200411f2000810f500036
:1015380005003200e80f500009003a000040eb00b7
:10154800004f78000800370060c6b300004f7800ed
:101558000500370050c5b300004f7800020037007f
:1015680050c5b300004f780011028000000e200023
:101578000100700010028800213a8000f08f2f00cf
:1015880000806000203a88001e01fb0080072000d0
:10159800a10920003374200080497800814978002f
:1015a80082497800120020006004200071052000a4
:1015b80023742000804978008149780082497800a6
:1015c80000000000103a8000610060000000e000a8
:1015d800fcff3a0011028000f0f12f00008060004b
:1015e800100288000080fa00000006000400fa00db
:1015f800008fbe001061a9001021a9008108800099
:10160800f0fc2f00008060000050a00080088800d7
:1016180011a1a90031058000000027000100700019
:101628003005880084e0a90094e0a8001e00780036
:101638004200dd00600888000621ef0011e1a800e3
:0c1648000140fe000080fa0000000600d7
:020000040000fa
:10165400000800000e000000000000000e0800005a
:101664000e00000002000000e484e90084f9840014
:101674000985190085258500010000001c0800006b
:1016840002000000000000001e080000020000002c
:0816940000000000000000004e
:020000040000fa
:10169c000000fa0079fd0700eafe0700401f200059
:1016ac009aff0700e06028001aff07008bfd070077
:0416bc00feff3700f6
:020000040000fa
:0200000401f009
:04000c008700000069
:020000040000fa
:0200000401f009
:040010007f0000006d
:020000040000fa
:0200000401f009
:04001c00c20000001e
:00000001FF
