:020000040000fa
:080000000002040000000000f2
:020000040000fa
:04000800640300008d
:020000040000fa
:04000c006403000089
:020000040000fa
:040010006403000085
:020000040000fa
:040014006403000081
:020000040000fa
:04001800640300007d
:020000040000fa
:04001c006403000079
:020000040000fa
:040020006403000075
:020000040000fa
:040024006403000071
:020000040000fa
:04002800640300006d
:020000040000fa
:04002c006403000069
:020000040000fa
:040030006403000065
:020000040000fa
:040034006403000061
:020000040000fa
:04003800640300005d
:020000040000fa
:04003c006403000059
:020000040000fa
:040040006403000055
:020000040000fa
:04004400e6020000d0
:020000040000fa
:04004800640300004d
:020000040000fa
:04004c006403000049
:020000040000fa
:040050006403000045
:020000040000fa
:040054006403000041
:020000040000fa
:04005800640300003d
:020000040000fa
:04005c00500300004d
:020000040000fa
:040060006403000035
:020000040000fa
:040064006403000031
:020000040000fa
:04006800640300002d
:020000040000fa
:04006c006403000029
:020000040000fa
:040070006403000025
:020000040000fa
:04007400f80200008e
:020000040000fa
:04007800640300001d
:020000040000fa
:04007c006403000019
:020000040000fa
:040080006403000015
:020000040000fa
:040084006403000011
:020000040000fa
:04008800640300000d
:020000040000fa
:04008c006403000009
:020000040000fa
:040090006403000005
:020000040000fa
:040094006403000001
:020000040000fa
:0400980064030000fd
:020000040000fa
:04009c0064030000f9
:020000040000fa
:0400a000c802000092
:020000040000fa
:0400a400de02000078
:020000040000fa
:0400a80064030000ed
:020000040000fa
:0400ac0064030000e9
:020000040000fa
:0400b00064030000e5
:020000040000fa
:0400b40064030000e1
:020000040000fa
:0400b80064030000dd
:020000040000fa
:0400bc0064030000d9
:020000040000fa
:0400c00064030000d5
:020000040000fa
:0400c40064030000d1
:020000040000fa
:0400c80064030000cd
:020000040000fa
:0400cc0064030000c9
:020000040000fa
:0400d00064030000c5
:020000040000fa
:0400d40064030000c1
:020000040000fa
:0400d80064030000bd
:020000040000fa
:0400dc0064030000b9
:020000040000fa
:0400e00064030000b5
:020000040000fa
:0400e40064030000b1
:020000040000fa
:0400e80064030000ad
:020000040000fa
:0400ec0064030000a9
:020000040000fa
:0400f00064030000a5
:020000040000fa
:0400f40064030000a1
:020000040000fa
:0400f800640300009d
:020000040000fa
:0400fc006403000099
:020000040000fa
:040100006403000094
:020000040000fa
:040104006403000090
:020000040000fa
:04010800640300008c
:020000040000fa
:04010c006403000088
:020000040000fa
:040110006403000084
:020000040000fa
:040114006403000080
:020000040000fa
:04011800640300007c
:020000040000fa
:04011c006403000078
:020000040000fa
:040120006403000074
:020000040000fa
:040124006403000070
:020000040000fa
:04012800640300006c
:020000040000fa
:04012c006403000068
:020000040000fa
:040130006403000064
:020000040000fa
:040134006403000060
:020000040000fa
:04013800640300005c
:020000040000fa
:04013c006403000058
:020000040000fa
:040140006403000054
:020000040000fa
:040144006403000050
:020000040000fa
:04014800640300004c
:020000040000fa
:04014c006403000048
:020000040000fa
:040150006403000044
:020000040000fa
:040154006403000040
:020000040000fa
:04015800640300003c
:020000040000fa
:04015c006403000038
:020000040000fa
:04020800640300008b
:020000040000fa
:04020c006403000087
:020000040000fa
:040210006403000083
:020000040000fa
:04021400640300007f
:020000040000fa
:04021800640300007b
:020000040000fa
:04021c006403000077
:020000040000fa
:040220006403000073
:020000040000fa
:04022400640300006f
:020000040000fa
:04022800640300006b
:020000040000fa
:04022c006403000067
:020000040000fa
:040230006403000063
:020000040000fa
:04023400640300005f
:020000040000fa
:04023800640300005b
:020000040000fa
:04023c006403000057
:020000040000fa
:040240006403000053
:020000040000fa
:04024400e6020000ce
:020000040000fa
:04024800640300004b
:020000040000fa
:04024c006403000047
:020000040000fa
:040250006403000043
:020000040000fa
:04025400640300003f
:020000040000fa
:04025800640300003b
:020000040000fa
:04025c00500300004b
:020000040000fa
:040260006403000033
:020000040000fa
:04026400640300002f
:020000040000fa
:04026800640300002b
:020000040000fa
:04026c006403000027
:020000040000fa
:040270006403000023
:020000040000fa
:04027400f80200008c
:020000040000fa
:04027800640300001b
:020000040000fa
:04027c006403000017
:020000040000fa
:040280006403000013
:020000040000fa
:04028400640300000f
:020000040000fa
:04028800640300000b
:020000040000fa
:04028c006403000007
:020000040000fa
:040290006403000003
:020000040000fa
:0402940064030000ff
:020000040000fa
:0402980064030000fb
:020000040000fa
:04029c0064030000f7
:020000040000fa
:0402a000c802000090
:020000040000fa
:0402a400de02000076
:020000040000fa
:0402a80064030000eb
:020000040000fa
:0402ac0064030000e7
:020000040000fa
:0402b00064030000e3
:020000040000fa
:0402b40064030000df
:020000040000fa
:0402b80064030000db
:020000040000fa
:0402bc0064030000d7
:020000040000fa
:0402c00064030000d3
:020000040000fa
:0402c40064030000cf
:020000040000fa
:0402c80064030000cb
:020000040000fa
:0402cc0064030000c7
:020000040000fa
:0402d00064030000c3
:020000040000fa
:0402d40064030000bf
:020000040000fa
:0402d80064030000bb
:020000040000fa
:0402dc0064030000b7
:020000040000fa
:0402e00064030000b3
:020000040000fa
:0402e40064030000af
:020000040000fa
:0402e80064030000ab
:020000040000fa
:0402ec0064030000a7
:020000040000fa
:0402f00064030000a3
:020000040000fa
:0402f400640300009f
:020000040000fa
:0402f800640300009b
:020000040000fa
:0402fc006403000097
:020000040000fa
:040300006403000092
:020000040000fa
:04030400640300008e
:020000040000fa
:04030800640300008a
:020000040000fa
:04030c006403000086
:020000040000fa
:040310006403000082
:020000040000fa
:04031400640300007e
:020000040000fa
:04031800640300007a
:020000040000fa
:04031c006403000076
:020000040000fa
:040320006403000072
:020000040000fa
:04032400640300006e
:020000040000fa
:04032800640300006a
:020000040000fa
:04032c006403000066
:020000040000fa
:040330006403000062
:020000040000fa
:04033400640300005e
:020000040000fa
:04033800640300005a
:020000040000fa
:04033c006403000056
:020000040000fa
:040340006403000052
:020000040000fa
:04034400640300004e
:020000040000fa
:04034800640300004a
:020000040000fa
:04034c006403000046
:020000040000fa
:040350006403000042
:020000040000fa
:04035400640300003e
:020000040000fa
:04035800640300003a
:020000040000fa
:04035c006403000036
:020000040000fa
:100400000f8420000edf20000e0188000000000095
:10041000000020000000e000020032000001200087
:100420002002880014000700a90007000000e00077
:1004300003003a0080f7210001002000020037008d
:100440000000200001002000810f70000100320038
:1004500014000700000020000000e000020032004d
:100460000000020000000000ee1f0200000000007b
:100470000040da000000fe004440a900003a2000dd
:100480000000e0000300320000002000a00188000e
:100490004440a800000006008a1f78008b1f7800e7
:1004a0000000060091018800800478000000eb0045
:1004b0001a003700e284440032a0b4009905ba0063
:1004c000e284440032a0b4009906ba00e2844400f9
:1004d00032a0b4000006eb00476fde00fd07b2005b
:1004e000636ce10003003a00ebff07000000eb0043
:1004f0000a003700606ce10004003a00005deb0088
:100500008b05e900fdff3e00040037006168e10053
:10051000010032000086eb000b00070019c7ba008b
:100520001905ba000e04e00003003a000a00e000da
:10053000e0ff3a0000000600fe07b2009e018800be
:100540008a047800f5ff3700395dba008b05e900b1
:100550000c003200295dba008b05e900080032006a
:100560000c00e00003003a00e284440032a0b40032
:10057000f5ff370019ddba008b05e900faff3a00f4
:100580008904e800e184440032a0b40000000600c1
:10059000801f78000000fa0087c0a900b011800019
:1005a0000040780020e8b70010c0b30021e8b70091
:1005b0000080fa004f007800004006000000fa00ba
:1005c00087e0a9000080fa0000400600801f780044
:1005d0000000fa0084e0a90011e1a9001000200049
:1005e000104188000080fa004f00780000400600ab
:1005f000801f78000000fa00004080000000e0004a
:100600000a003a0010408000e10f500007003a0055
:1006100020408000e10f500004003a00404080007c
:100620000000a20040408800190037000040800010
:10063000e10f50000a003a00104080000000e00086
:1006400007003a0020408000e10f500004003a000b
:10065000504080000000a200504088000c0037008d
:1006600000408000e10f500009003a001040800077
:10067000e10f500006003a00204080000000e0003a
:1006800003003a00604080000000a2006040880043
:100690008660a9000080fa004f0078000040060044
:1006a000809fbe000000fa00510580000007200076
:1006b000010070005005880085a0a9000080fa00a4
:1006c0004f00be00004006000040da000000fe00bf
:1006d000000005000001be001e0007000470a70016
:1006e00003f0a10003f8a30013003a006509b1006c
:1006f00010003200090035006928e10002003500d1
:100700000100280000000500000040008180480032
:100710008502e900fcff3a0000000600f88f420065
:10072000050035008100d1000080d3008502e8007b
:10073000fcff3a00000006008000eb00000005000e
:100740004f89de0082017800960137006011b80001
:10075000a4013700c70ade00f107b200f50fb200ae
:1007600008003200e1cf4200020032000170a00018
:1007700024000500810f700001003200040805000c
:1007800044000500810f700002003a0014000500cb
:100790008502e9000000400081c04800fcff3b00ea
:1007a0000170a00024000500889fbe008a9fbe0043
:1007b0008c9fbe001b0020000202be000586680060
:1007c00006002800060666004709de00f20fb200a8
:1007d000820032000243e80080003200c729de00b8
:1007e000f30fb2007d0032000343e8007b003200cb
:1007f000f107b2000170a000f507b2000570a0007b
:10080000c708dd004903de00868070004700dd0078
:10081000c72add004923de00868272004722dd0000
:100820000305510004035000858358000300310084
:1008300000004000818048000a05e9008c1f780014
:100840008a9fbe00040050008580580004024200c8
:1008500085824a0000004000818048000005eb00ce
:100860000004be006033b8000406be000d48e1007d
:1008700056003100110009004dccd8000c01b80021
:100880000d02b8008481410060824a0082835300d7
:1008900003045c0084845c0060055d000a00e000e5
:1008a00025003a00800578000d40e1004900310044
:1008b0008800780007007800110009004d88d800f2
:1008c0000c01b8000d02b8008481410060824a002a
:1008d0006003110083835b0004045c00e0845c001f
:1008e0000900e00021003a004f01be000300e000d3
:1008f0002b003200e3016000070673008c81710059
:1009000001003200640070004200de004e5edd0037
:100910000c007000c258de0001e0a0009b00070040
:10092000cf017800818071004f06be004f05be00e8
:100930004f04be00000006008c8343000d044c00f1
:10094000e0844c0060054d000000e9000a00e00072
:10095000d4ff32008c8343000d044c00e0844c0033
:1009600060054d000000e900ceff37000c03430096
:100970008d834b0060044c00e0844c000000e900d3
:100980000900e000d8ff32000c0343008d834b00c8
:1009900060044c00e0844c000000e900d2ff370006
:1009a0004200de004e5edd000c007000c258de002a
:1009b00001e0a000cf0178000300e000daff320080
:1009c00060001000e0801800d7ff3700f0ff2f0014
:1009d000aaff3700f0ff2f00b9ff37000404be0064
:1009e00050000700870678000004fd008104fd0028
:1009f0004c000700078366000678a300030032005e
:100a00000960a7000800be002c0037000d78a30085
:100a1000020032000800be00280037000778a3005b
:100a200026003a0001f0a10009f0a1000668a30029
:100a300003003200f1ff2700f0ff2f00baff37005c
:100a40000d68a300030032000800be008c80700017
:100a5000b5ff37000768a30007003a000648a30067
:100a600003003200f1ff2700f0ff2f00aeff370038
:100a70000d48a300030032006000b8008c807000b5
:100a8000a9ff37000748a3000400320001f827003f
:100a9000000020008c807000a3ff37008e0007004c
:100aa0000004fd008104fd00020578008a000700b3
:100ab0000802be008a01780059ff37000160a000db
:100ac000120220002241880097ff37000100e00059
:100ad000120032000500e00010003200889fbe00c6
:100ae0008a9fbe008c9fbe000006eb0001f8a300a9
:100af0000300320060001000e08018000cf0a0003d
:100b000005f8a3000300320060021200e0821a0020
:100b10000cf0a2008005eb0041ff37006000b80038
:100b2000020005002700200001f0a70017002000a8
:100b3000470bde00f60fb200040032000643e80067
:100b40000a0032004702b3000000060001037800eb
:100b5000f607b2000603700002003a000703b30074
:100b6000000006008702b3000000060001037800c1
:100b7000f607b20006037000020032000770a00002
:100b8000000006000760a000000006008101700060
:100b9000270032008002eb0001f8a30003003200be
:100ba00060001000e080180015002000f40720000d
:100bb0000202420020003400f70320008703600097
:100bc0000604200000036300020820000001610009
:100bd0004700de00c909dd0000807100c708de00a3
:100be0000600e000080032008703710006003200b2
:100bf0001000b0000180b0000188a30002003200a4
:100c0000c108de000402e800f107b200f30f200083
:100c10000320e10003003d004722dd008100720057
:100c20002900370001f827000000eb0026003700fc
:100c30006000b80000000600680212007f20e1009a
:100c4000020034006000b8001f0037006011b800d7
:100c50007020e10004003500800178000100780078
:100c60008000eb00700252000400e0000900340034
:100c7000f00312000719dd008419de000703dd0010
:100c8000868171000400de00070bdd0006007000a5
:100c90008408de00f7ff2700838363008703710069
:100ca0000600280003036300070032000700e0008d
:100cb00003003a006101600002817300020032000b
:100cc0001000b0000180b0000500a6000000060082
:100cd00001f0a000000006004f0ade004709de0018
:100ce000f107b200f20fb2000b003200f207b100c0
:100cf0000170a000c708dd00c901de00838070001c
:100d00004700dd000400a60000000600600010009f
:100d1000e080180000000600810f700001003a001a
:100d2000000006008182cf000500e00010003e00b8
:100d30008082cf00ee8242007028e100040039007a
:100d400007003e00800078000000eb000e00370036
:100d5000708312008600de000500dd000a00370007
:100d6000708352008600dd000000eb0006003700b3
:100d7000e28252008508dd00708312000603de0067
:100d8000868070000500dd007507b0000501ea00ef
:100d90000400a6000000060060001000e0801800bb
:100da00000000600881f7800030478000300e000bc
:100db00007003d0060001000e0801800600119008d
:100dc000e081190002003b0001f02d000300370014
:100dd0000400070008f0a70001f0a0004f0478000d
:100de00000000600889fbe008a9fbe00008270003f
:100df0000402710004827100260032000004be006b
:100e00000200be006011b8006b09200095022000ae
:100e10000182cf000a0039000541b1000082cf00f5
:100e2000070039000541b1000982cf0004003900f4
:100e30000541b1000882cf00010039000541b10031
:100e400005425200120032000a003b00828171000c
:100e5000610164008100d1000080d3008984d30047
:100e60000884d3008b05e8000442e800f7ff3a004d
:100e7000070037000804440089844c000000480043
:100e8000818048008b05e9000442e900f9ff3a003f
:100e9000030007004f05be004f04be00000006001f
:100ea00081002000618055000b003d000b002000f8
:100eb00061fe2f000100e1001d00340082817100fd
:100ec000610164008904d1000884d3000000e800b7
:100ed000faff3a0071002000610064000300700016
:100ee000020060000900320061044400e0844c000c
:100ef0000988a500050032008b05e8006808e100bc
:100f000002003a008904d1000884d300f20f2000c7
:100f10000258e10005003d00c75ddd00f907b200a1
:100f20008980750008007800000006000bf8270093
:100f30008b007800000005004f02b000889fbe00c3
:100f40008a9fbe008c9fbe008e1f78000005be00e9
:100f50000204be00b2af9f00c3af9f00b2b79f00b4
:100f6000c3b79f00cfae97000df0a1000206780036
:100f7000e00f5600e08f5e00c0033200faaf9f0022
:100f80008bb79f000000200001f82300800f550060
:100f9000818f5d00b90332008fb2970005f0a10088
:100fa0007faa970094b79f00a5b79f00000020007c
:100fb00001f82700800f5200818f5a0003003c0087
:100fc000800f5600818f5e00040034000a01be00cd
:100fd0000800be00bd040700af0337006033b8004f
:100fe0007fa997008fb19700e00f5100e08f590063
:100ff00029003d002600200007002000f0ff2f0000
:10100000f1b72400800f5600818f5e0022003c0063
:101010006033b800f0ff2f00f1f72300800f560077
:10102000818f5e003300340047e8de00cfe8de0049
:10103000f007b1000180b100770110000c00be0084
:10104000820178008301e900030033008180d10030
:101050000080d300fbff37000003be0002077800ca
:101060000e07e900030033000603430087834b00ab
:10107000fbff37000601be006033b8008c0f510043
:101080008d8f59001b003a0061036000620313005a
:10109000e0831b00170037000000200001f8270044
:1010a000800f5600818f5e0012003a000000200081
:1010b00001f82300800f5200818f5a006f03320025
:1010c000060034003fb09700cfb09700e00f50000b
:1010d000e08f580071033d006b0337003fb197006c
:1010e000cfb19700e00f5100e08f590066033d003b
:1010f000690037000000200001f82300800f56002f
:10110000818f5e0009003a003fb29700cfb297008e
:10111000e00f5200e08f5a005d033d000a01be005f
:101120000000200001f823005500370000002000d7
:10113000010024003fb19700cfb19700800f51000c
:10114000818f590003003a000a01be000a00be0068
:10115000480337000000200001f023003fb1970052
:10116000cfb19700800f5100818f590008003a00dd
:101170007fa897008fb09700e00f5000e08f5800d5
:10118000030035000a00be00750307004203370064
:101190000a00be00f4b79f0085bf9f00d6b79f002e
:1011a000e7b79f00f80307000200200003f82700bc
:1011b0007fb297008fba97005fb39700efb39700a5
:1011c000820f5200838f5a0008003200e00f520055
:1011d000e08f5a00050032000200200003f82300cf
:1011e000820f5200838f5a002d003a003fb19700c2
:1011f000cfb19700e00f5100e08f59000c003d0087
:101200000001be000000200001f82300f4b79f0099
:1012100085bf9f00d6b79f00e7b79f0062fd07001c
:101220007fb297008fba97005fb39700efb3970034
:101230007fa997008fb19700e00f5100e08f590010
:1012400015033d000200200003082c0004024100a9
:10125000858249000402730085827300e00f52000a
:10126000e08f5a0008003a0012022000f241880084
:101270000001be000200be000b0407000001be001a
:1012800049fd070004033700e10f5300e08f5b00c6
:1012900001033a000004be0009f0a200ff0237007b
:1012a0007fa997008fb19700e00f5100e08f5900a0
:1012b0000d003d00e00f5300e08f5b0004003a009a
:1012c00010022000f04188000a01be00e9ff37004b
:1012d000e10f5300e08f5b000800320006002000a1
:1012e00007f82300070037000200200003f823005e
:1012f000f2af9f0083b79f00040037000600200074
:1013000007f82b00f6af9f0087b79f000200200070
:1013100003d02400820f5600838f5e0056003400f5
:1013200072ff2f00f3f72300820f5200838f5a00c1
:1013300006003c003fb09700cfb09700e00f500090
:10134000e08f580004023d00e201370072002000e7
:1013500003f82300820f5200838f5a0006003400e6
:101360003fb19700cfb19700e00f5100e08f5900d7
:10137000d8013c00f80137000200200003f82300e8
:10138000c90307000005be0002a02a0083fb23005a
:10139000b304070090b79f00a1b79f0002572a002f
:1013a000c36e23000a00be00ad0407000002be00a9
:1013b0000a01be000a00be00f4b79f0085bf9f006f
:1013c000a70407000006be000200200003e8230077
:1013d0000a00be00a20407000001be00b0aa2a0055
:1013e000a1ea2300b00307000001be000a00be000e
:1013f0009b0407000001be000000200001f0230054
:10140000a90307000001be000c00be009404070001
:10141000b2a32a0083fb2300910407000001be0051
:101420007fb297008fba97000400be009e030700aa
:101430000005be000001be001fb09700afb09700ce
:10144000a20307000001be008300780004002f0003
:10145000020062000003be00b6b79f00c7b79f003e
:101460001fb19700afb197008f0307000001be00c6
:101470000a00be00560137006011b800f6ff2f00c9
:10148000f7072000860f5200878f5a0007003c00a4
:101490000200200003b824007104070090b79f00e9
:1014a000a1b79f0082fe2f00f3ff2f00f207b100cb
:1014b0000380b1002fb2970047a0de0084027800bd
:1014c000cfa8de00020340008383480096af9f0050
:1014d000a7af9f0085007800f107b2001fb097000a
:1014e0000200200003f823000202700083827000d3
:1014f00094b79f00a5b79f006033b800d6af9f0098
:10150000e7af9f0012472c00c3012000820f50005c
:10151000838f58001a0034001200200003002000be
:10152000d2af9f00e3af9f00623d2b00d3052000a8
:10153000820f5000838f5800110034001faa9700bb
:10154000afaa970061024200e0824a0094af9f0078
:10155000a5af9f000000200001f82f001fb39700e7
:10156000afb39700060340008783480096b79f00fb
:10157000a7b79f006000b800d0af9f00e1af9f0009
:10158000dfa89700c208dd0081af9f0060822000c5
:10159000010040001005be000a01be001fb0970008
:1015a000afb09700400307000006be000a01be006e
:1015b0001fb09700afb09700440307000001be00c2
:1015c0000000200001f8230077fc07000002be00a5
:1015d0000001be000c00be00f4b79f0085bf9f0055
:1015e0001f0407000003be000e002f0081017800d9
:1015f000c3b79f0000016700b2b79f005fa89700c4
:10160000efa89700c500dd0000002000d0af9f00cc
:10161000e1af9f0000002000010420005fa99700b7
:10162000efa997000201400083814800d2af9f00dc
:10163000e3af9f001fb09700afb097008181d1004a
:101640000081d3008300780001d0a1000200670070
:1016500001d0a0005fa99700efa997000201400008
:1016600083814800d2af9f00e3af9f005fa997003e
:10167000efa997003fb09700cfb09700d6b79f0073
:10168000e7b79f00f60307000001be000c00be0094
:10169000050307000006be000a01be005fa8970010
:1016a000efa89700000307000001be001fb09700dd
:1016b000afb09700fc0207000001be003fb09700ea
:1016c000cfb09700e60307000001be000c00be008b
:1016d000f50207000001be007fb297008fba9700a5
:1016e0000400be00de0307000006be005fb39700e3
:1016f000efb397000601be000600be00d803070046
:101700000005be000001be00d50307000002be00b8
:1017100022142f0033e523000a00be00f4b79f0017
:1017200085bf9f00ce03070052252300c3e6230098
:10173000e60207000001be000a00be00c803070061
:1017400052302a00b3e82300e00207000001be0087
:101750000a00be00c2030700b2aa2a00a3ea2300bf
:10176000da0207000001be000a00be00bc03070049
:1017700072db2600b3ed2300d40207000001be0097
:101780000a00be00b6030700a299290093f12300c6
:10179000ce0207000001be007fb297008fba97000b
:1017a0000400be00ae0307000005be005fb3970053
:1017b000efb397000601be003fb09700cfb097008f
:1017c000c20207000001be000c00be00a403070017
:1017d0000001be000a00be00bc02070090b79f00d7
:1017e000a1b79f003fb19700cfb197000200be00a4
:1017f0009b0307000005be00020020000304240034
:10180000b20207001fb19700afb19700af02070007
:1018100081027800000267000401be003fb097001b
:10182000cfb09700f4b79f0085bf9f008c030700df
:10183000b0b79f00c1b79f007fb297008fba9700e3
:101840000401be000c00be00850307000006be00b8
:1018500002002000030424007fb297008fba970093
:101860000400be00900207000a01be008e020700bd
:101870000001be001fb09700afb097008a020700ba
:101880005fb39700efb397000601be007403070033
:101890000001be000c00be008c0207000005be0067
:1018a0000001be003fb09700cfb09700870207004d
:1018b00081027800000267000200240063f7230021
:1018c0000400be00f4b79f0085bf9f0064030700bb
:1018d00090b79f00a1b79f00623c2200638f2b004e
:1018e0007fb297008fba97000400be005c03070028
:1018f0000006be003fb19700cfb197007fb29700be
:101900008fba97000400be00670207000001be0006
:101910000a00be0064020700f284230063f723007c
:101920004f0307000001be000c00be006702070065
:10193000e28220008fab9700070141001201be0038
:1019400062020700d0af9f00e1af9f001fa8970081
:10195000afa897007afb07000006be006083200056
:101960008fa99700030040001005be005fa99700f3
:10197000efa997001fb09700afb097005302070080
:101980000a01be00510207000c01be004f02070011
:101990000001be0083007800020067000002be0064
:1019a000b4b79f00c5b79f000c01be003e02070000
:1019b0000a01be003c0207001fb19700afb19700bb
:1019c000390207000001be005fa89700efa897004a
:1019d000350207000005be00cfaa970000002f00c7
:1019e000bfab9700070260000401be000800be0004
:1019f000f4b79f0085bf9f002b0207003fb19700ff
:101a0000cfb19700160307000006be000a01be0012
:101a10000800be00120307000001be000c00be005b
:101a20002a0207000004be003fb19700cfb1970023
:101a30007fb297008fba97000400be00080307002a
:101a40000005be00b0b79f00c1b79f000a01be00ed
:101a50000800be001d0207000006be000003be0015
:101a60000000200001302400800f5600818f5e00ae
:101a700018003c00800f5600818f5e001d003a0068
:101a8000c2a32a00833323000800be00dcb79f00f6
:101a9000e7b79f000d0207000002be000a01be006a
:101aa0000c00be00f4b79f0085bf9f00fe01070039
:101ab0000001be007fb297008fba97000400be00fd
:101ac000f70107005fb39700efb397000000e00055
:101ad00029003400a22c2f00931427007fa8970020
:101ae0008fb09700de020700a22c2f00931427006e
:101af000e00037008701780003f0a1000c017800b6
:101b00000000200061312400800f5100818f5900b6
:101b100011003c000000200061312c00800f5600b5
:101b2000818f5e0014003a000a01be000c00be0066
:101b3000dcb79f00e7b79f00db0107000001be0094
:101b40000800be00d40107005fb39700efb3970011
:101b50000000e00008003c000226240023da2000f8
:101b60007fa897008fb09700bd02070002262400cf
:101b700023da2000bf0037008701780003f0a100be
:101b8000060178006022b8000000200001f0230068
:101b9000800f5100818f59003a0034004798de00d1
:101ba00022f82f0000014100000020000108200061
:101bb0000201e900030033008180d1000080d300de
:101bc000fbff37000000430081804b0001067800d6
:101bd0008c01780003f0a100479ade00cf9ade0066
:101be0000401be00f207b1000380b100b2b79f004c
:101bf000c3b79f00f4ff2f00f5072000bfb1970087
:101c00008301e900030033008582d1000482d30000
:101c1000fbff37000482ea008582ea008501660046
:101c200000016200fd0720008d02660000027800be
:101c30000570a0003fb79700770017000000e9008b
:101c4000030033008582d1000482d300fbff3700fc
:101c5000e00f5300e08f5b0002003d0060021200c5
:101c6000e0821a000a00be00f4b79f0085bf9f0003
:101c70008d010700b0b79f00c1b79f008fba9700d2
:101c80007fb297003fb19700cfb197000800be0028
:101c9000f4b79f0085bf9f008c0107008106780084
:101ca00002002800000661000220270013f3230031
:101cb0000c00be006a0207000005be003fb197009d
:101cc000cfb197000c00be00770107000001be00f5
:101cd0000800be00740107008221270013f32300cf
:101ce0005f0207000004be00c2e82b00f35b230084
:101cf0000c00be005a0207000001be000800be0032
:101d0000720107000006be000001be000a00be000e
:101d10006e0107000004be000a01be006201070058
:101d20000001be000c00be005f010700b0b79f00bd
:101d3000c1b79f000801be000800be0048020700ae
:101d40000005be00c2b42b00133323004402070079
:101d5000e2a02e00d35d2300530107000001be0066
:101d60000a00be003e02070052352b00a388230064
:101d7000560107000001be000a00be00380207003d
:101d800012b6200063b32300470107000001be0024
:101d90000a00be0032020700b2aa2a00a3e2230012
:101da0004a0107000001be000a00be002c02070025
:101db0000001be000800be003b0107000005be0098
:101dc0000001be000800be00250207000006be009c
:101dd00002002000030024000a00be0032010700b8
:101de0000001be000c00be006ffa07000005be0037
:101df0003fb19700cfb197000800be00180207005e
:101e00000001be003fb09700cfb097002f01070040
:101e10000001be000a00be00230107000801be0049
:101e2000210107000001be000000200001f823008e
:101e30001d0107007fb297008fba9700c721dd0010
:101e4000020020000201400083814800479bde0021
:101e5000cf9bde00e00f5300e08f5b0003003c00ef
:101e600004017800140007000001be007fa897005d
:101e70008fb09700fa010700070037000800200024
:101e800009f82300050037006044b800030037005c
:101e90000a04be00010037000004be000800be00b6
:101ea0004f0778004f06be004f05be004f04be002e
:101eb0004f02b10000000600889fbe0002047800b7
:101ec000f9072000890f54000d00340002002000a3
:101ed00003f02700e2010700f807b100890f540062
:101ee000170034000200200003f02700dc01070087
:101ef000f807b100890f540010003c0010003700b3
:101f000029f82f00890f54000d003d000200200029
:101f100003c82000d20107006806b000890f5400f2
:101f200007003d000200200003c82000cc0107008c
:101f30006806b000890f540001003d0009047800d4
:101f4000f207200008014100cf91de00c711dd003b
:101f500002002000c20107004f04be00000006007e
:101f6000889fbe008a9fbe008c9fbe000004be00fa
:101f70000400200005f82700858360000403780032
:101f8000840f5300858f5b0007003a000801be00f4
:101f90000800be00b20107000001be000800be003c
:101fa000ca00070010003700e00f5000e08f580013
:101fb0000f003c008101780003f0a10000017800cf
:101fc000e00f5100e08f59006a003200100220003b
:101fd000f04188000801be000800be00b200070002
:101fe0000001be00f0f907000004be0061003700e8
:101ff000478cde00cf8cde00e00f5400e08f5c00e9
:102000000f003a006044b8000400370000004000b0
:102010008180480061044400e0844c0004002000fa
:10202000050820008181620004017800e00f510062
:10203000e08f5900f5ff320061041400e0841c00b9
:10204000f807b1000980b10081017800f307b20000
:10205000000178000200be000170a0000808a30083
:102060000200320000004000818048008984d100d5
:102070000884d300000040008180480094012000c3
:1020800002002000031020006055b8006066b80010
:102090000c0341008d834900800f5300818f5b004a
:1020a00006003c00060641008786490006005000f5
:1020b000878058000a0541008b85490000004000d8
:1020c000818048008301d1000281d3000402e9002d
:1020d000efff3a00e00f5000e08f58001b00320085
:1020e0000226240023da20000000200001f823004b
:1020f0006d0007000200200003f8230068000700bd
:102100000000e000110035000226240023da200040
:102110000000200001f823006c00070002002000ee
:1021200003f823005e0007000000e0000300340015
:1021300062054500e0854d00040037006000b800ee
:10214000610065000005450081854d00c744dd0044
:10215000080020000000200001f0230008044000d7
:10216000898448008b85d1000a85d3000804450086
:1021700089844d000800be004f06be004f05be001a
:102180004f04be00000006000001be00830078007e
:1021900001f0a1000200780000000600881f78000e
:1021a00000047800080078001b0007000800780091
:1021b0004f0478000000060080007800040037001b
:1021c0003104e00002003a00000051000000060067
:1021d000010178000108a300f9ff3a0081017800ad
:1021e00031017800f4ef2f00020242000281ea0080
:1021f000020162000408280004016100f7ff3200b8
:1022000083007800010178003104e000fdff3a000e
:1022100000005100000006000101780080017800f4
:10222000008268000408a300050032001300370094
:1022300032407800805978000004e0001400320039
:10224000030278000208a300f9ff3a0003007800b7
:10225000010037000318780082007800b20178008e
:10226000f5ef2f00838242000382ea0004826200bd
:102270000508280005026200f6ff3200000278001f
:1022800031417800025878000204e000fbff3a0078
:10229000040078000000060014002000d801370078
:1022a000f4ff2f00d601370007f8270007836100ed
:1022b0000638e10004003a00f70720008783610038
:1022c0008703710001003a0003f0a200889fbe005e
:1022d0008a9fbe008c9fbe00470ade000480a100da
:1022e000c71ade000580a1000700280007856000ee
:1022f00087856100f70f20000720e1009e00320073
:102300000728e1009c003200010678000400e0008c
:10231000b4003200f7072000878060000170a00041
:102320000500e000c0003200f7072000878161004f
:102330000370a000050652000f003a000b50e100a8
:102340000b0032000308e10002003a000200e10045
:102350007e003200020450008384580004003100e3
:102360000001fd008101fd008402fd008a05fd00e1
:102370006044b800210037000520e10005003d0061
:102380000001fd008101fd008402fd008a05fd00c1
:10239000050652007a60e100050035000170a100d9
:1023a0004722dd00848070008a807000630037005f
:1023b0006044b800ef02660007ff2f0007066600c2
:1023c0000500e00006003400f08312008714dd00f1
:1023d0000511de00071bdd00060171008519de0016
:1023e0007060e1000500350009047800820478007f
:1023f000030178008001eb00700656000b50e100ed
:1024000003003a00020040008380480004003700c7
:1024100060041400e0841c0002005800838058000f
:102420000188a300060032008100d1000080d300a3
:102430008984d3000884d3000402e8002700370011
:102440000178a30025003a000100e00003003200fb
:102450008186cf00698656000a0037008c00200074
:102460000000e00004003a000900780088047800c9
:102470000004eb00700252008086cf000d0646007b
:102480000c06e9007060e10006003500800078006d
:1024900009007800880478000004eb0070065600fc
:1024a000700252000c00e0000c0034008c08dd00cb
:1024b000f00316000703de00868070000c00dd00cc
:1024c000074bde00060070008c4cdd000743de0089
:1024d000868474000c44dd000c0252006120e1008f
:1024e000200035006101600007002800878164003a
:1024f000f7ff270087836400070374000300e000f0
:102500000600320082037300040032000000e8007d
:10251000e08048000188a3000e003a00f70f200079
:102520000720e1004a003d000170a1004722dd00c4
:10253000810072008a8070000000be004f06be005d
:102540004f05be004f04be00000006006000b8004a
:10255000faff37008100d1000080d3000402e800b8
:10256000eeff37000401780089017400c200070003
:102570008a807000f1ff37006af9070007027800cf
:102580000001fd008101fd0066f907008702780067
:10259000850372000778a300040032000001fd00eb
:1025a0008101fd000d010700e4ff37008503620093
:1025b0000768a300080032000b50e100030032005e
:1025c000f0ff2f00f1ff2700dcff37000001fd00c6
:1025d0008101fd00d9ff37000468a300d7ff320056
:1025e000faff3700f8ff2700888360000b003a00ed
:1025f0000000e00009003a00830364008283730056
:10260000020032000200be00ccff37000b50e10098
:10261000ceff3a000200be00c8ff370014002000c1
:10262000810064003eff3700f8ff270088836100c7
:1026300004003a000200e00002003a008c0078003a
:10264000beff3700150020008301640039ff37000a
:1026500001f827000000200081007500b7ff370057
:10266000038368000700280007036300470ade00b1
:102670000480a100c71ade000580a100f70f20002a
:102680000720e100420032000728e100400032004c
:10269000889fbe008a9fbe008c1f7800f107b200a1
:1026a000f307b2000400e000640032000170a000f3
:1026b0000500e000680032000370a00085054200bc
:1026c000eb07b1000204b8000302b80084844400a0
:1026d00060854a00020ab800848444000a854a00e2
:1026e000030ab80004054500040033000804d000c4
:1026f0008984d2000a85d2008b05e9006158e10087
:102700003d0035000210200009016100030820008f
:1027100089816100f70720008783640008867300c1
:10272000c84cde00c853dd00878474004855de00c5
:102730000300e0000600320082037600040032004d
:102740008904e80060054d000a88a3000c003a00e7
:10275000f70f20000758e10044003d000a70a10077
:10276000c75ddd000a8575008a00730009007800e6
:102770004f0678004f05be004f04be000000060063
:102780000a05d1008984d3008b05e800f0ff3700eb
:10279000881f780006047800e2f807000702780036
:1027a0000001fd008101fd00def8070087027800ce
:1027b000850372000778a300050032000001fd00c8
:1027c0008101fd00850007004f047800000006002d
:1027d000850372000748a30003003200f0ff2f00ba
:1027e000f1ff2700f8ff37000000200001f8270064
:1027f00088807000f4ff3700880178004848dd00c9
:10280000808171004848de00c850dd000100700082
:10281000c850de00060478000b017800160007009f
:1028200088807000d2ff37000500e000050032000c
:10283000170020003a0007009dff37008103700059
:10284000f9ff3a00860078004f0678004f05be0079
:102850004f04be000000050083037100f9ff320041
:10286000270020002e00070094ff370001f8270002
:1028700086807000f4ff37000100e000260032007f
:10288000610111007810e10023003c006022b800d3
:102890007010e1000400350080027800010078002b
:1028a0008000eb00700151000200e00009003400dc
:1028b00070031100062add00822ade008603dd0097
:1028c000878272000200de00860bdd0007007000c8
:1028d0008208de0084817100f4ff27000482620018
:1028e000848171000400280084826200610260001b
:1028f00005f0a60000000600048271000700320007
:102900000000e800e0804800000006000002be0071
:102910006000b800efff37006000b800000006005c
:10292000889fbe000004eb006138e10016003a0009
:102930000100e00008003a00c800de004800dd00a9
:10294000880020000100e00003003a00c800de001b
:102950004800dd00680444008184cf00e98454000d
:10296000060034008908dd00f08314008703de00d0
:10297000878070000900dd00090444006102140032
:102980004f04be00000006000300e00008003a000b
:10299000c811de004811dd00880020000300e000bf
:1029a00003003a00c811de004811dd00680444004d
:1029b0008384cf00e9845400060034008919dd00c7
:1029c000f08314008713de00878171000911dd0098
:1029d00009044400e1021400e9ff37000478a30071
:1029e000040032000578a300030032000168a30050
:1029f00001003a000200be000160a00000000600d5
:102a0000889fbe008a9fbe00841f780017000700c1
:102a10004f00780011003300f0ff2f00838f6c000f
:102a200006003b00040565000a00a7000800370007
:102a300009f0a6001000200008003700820f5400a3
:102a4000838f5c00030039001000200001003e006d
:102a50000000200009f0a7000000ea004f05be00ba
:102a60004f04be000000e000000006000004be00ad
:102a700038f707000003be000405be000200be00d8
:0c2a800034f70700844f750000000600ca
:020000040000fa
:102a8c0050420000312000007761000073200000ec
:102a9c007072000065730000736500006400000034
:102aac0050420000322000007761000073200000cb
:102abc007072000065730000736500006400000014
:102acc0050420000332000007761000073200000aa
:102adc0070720000657300007365000064000000f4
:102aec000d0a000020450000525200004f52000019
:102afc003a200000496e0000766100006c6900000d
:102b0c0064200000696e00007075000074200000e5
:102b1c00284d0000757300007420000062650000f1
:102b2c00204500006e6700006c69000073680000af
:102b3c0020430000686100007261000063740000b3
:102b4c006572000073290000720a00000064000026
:102b5c006f670000370000000d0a0000457200008e
:102b6c00726f0000723a0000205000006c6500008b
:102b7c006173000065200000707200006573000036
:102b8c00732000005042000032200000746f0000df
:102b9c002072000065730000746100007274000004
:102bac0020700000726f000067720000616d000001
:102bbc000d0a0000000d00000a570000656c0000b3
:102bcc00636f00006d650000207400006f20000032
:102bdc00556e00006c6f0000636b0000205000000d
:102bec00726f000067720000616d0000210d000023
:102bfc000a000000506c0000656100007365000065
:102c0c00206500006e7400006572000020740000e6
:102c1c006865000020660000697200007374000093
:102c2c0020630000686100007261000063740000a2
:102c3c0065720000206f00006620000074680000c0
:102c4c00652000007061000073730000776f000056
:102c5c00726400003a2000000d0a0000000d000014
:102c6c000a4300006f72000072650000637400007c
:102c7c0020310000737400002043000068610000e4
:102c8c007261000063740000657200002e20000069
:102c9c00456e00007465000072200000326e00006a
:102cac006420000043680000617200006163000052
:102cbc0074650000720d00000a0000000d0a00008f
:102ccc00436f000072720000656300007420000006
:102cdc00326e000064200000436800006172000046
:102cec006163000074650000722e00002045000036
:102cfc006e740000657200002033000072640000e6
:102d0c0020430000686100007261000063740000e1
:102d1c00657200000d0a0000000d00000a4300005f
:102d2c006f720000726500006374000020330000b5
:102d3c006e640000204300006861000072610000b6
:102d4c0063740000657200002e20000055730000b3
:102d5c0065200000706f0000746500006e74000048
:102d6c00696f00006d650000746500007220000042
:102d7c00746f0000206900006e7000007574000014
:102d8c0020340000746800002063000068610000bb
:102d9c007261000063740000657200000d0a00008f
:102dac00000d00000a200000436f0000727200004a
:102dbc006563000074200000766100006c750000f3
:102dcc0065200000666f0000756e0000642e000028
:102ddc002050000072650000737300002065000035
:102dec006e74000065720000207400006f200000fb
:102dfc00636f00006e740000696e00007565000062
:102e0c000d0a0000000d00000a200000556e0000a5
:102e1c006c6f0000636b0000656400003a200000da
:102e2c007768000061740000207700006f75000067
:102e3c006c640000207900006f750000206c0000ad
:102e4c00696b000065200000746f000020640000b6
:102e5c006f3f00000d0a0000000d00000a2000006a
:102e6c0050420000313a0000204c00006f6300001b
:102e7c006b2000005379000073740000656d000036
:102e8c000d0a0000000d00000a2000005042000056
:102e9c00323a00002053000065740000204e000000
:102eac00657700002050000061730000737700000c
:102ebc006f720000640d00000a0000000d0a000093
:102ecc0020500000423300003a200000456e000004
:102edc0074650000722000005370000065630000f0
:102eec00696100006c2000005374000061740000e4
:102efc00650d00000a0000000d0a0000464c0000a1
:102f0c006167000020560000616c000075650000d0
:102f1c00730d00000a0000000d0a00002050000094
:102f2c006c6500006173000065200000656e000098
:102f3c007465000072200000666900007273000066
:102f4c00742000006368000061720000616300007f
:102f5c0074650000722000006f660000206e000097
:102f6c00657700002070000061730000737700002b
:102f7c006f720000642000003a2000000d0a00006f
:102f8c00000d00000a200000506c0000656100007c
:102f9c0073650000206500006e740000657200000f
:102fac0020730000656300006f6e00006420000059
:102fbc0063680000617200006163000074650000ca
:102fcc00722000006f660000206e00006577000024
:102fdc002070000061730000737700006f720000b6
:102fec00642000003a2000000d0a0000000d0000d3
:102ffc000a200000506c0000656100007365000041
:10300c00206500006e7400006572000020740000e2
:10301c0068690000726400002063000068610000b1
:10302c00726100006374000065720000206f000084
:10303c00662000006e6500007720000070610000c3
:10304c0073730000776f000072640000203a000078
:10305c00200d00000a0000000d0a000020500000a6
:10306c006c6500006173000065200000656e000057
:10307c007465000072200000612000006e75000075
:10308c006d6200006572000020750000736900001d
:10309c006e6700002041000044430000203a00000d
:1030ac00200d00000a0000000d0a0000204900005d
:1030bc007320000074680000697300002074000025
:1030cc0068650000206e0000756d000062650000f0
:1030dc0072200000796f00007520000077610000fd
:1030ec006e7400003f200000792f00006e2000005d
:1030fc000d0a0000000d00000a200000506c0000ba
:10310c006561000073650000206500006e740000ae
:10311c00657200002061000020760000616c0000e8
:10312c0069640000206900006e7000007574000076
:10313c00200d00000a0000000d0a0000206e0000a7
:10314c006577000050610000737300003a200000a6
:10315c000d0a0000000d00000a2000004f6c00005a
:10316c00642000005061000073730000776f000052
:10317c00726400003a2000000d0a0000000d0000ef
:10318c000a2000006e6500007720000050610000ee
:10319c0073730000776f0000726400003a20000027
:1031ac000d0a0000000000000a7400006f6f0000a0
:1031bc00206c00006f6e0000670a00000d0000001c
:020000040000fa
:1031cc000400fa00100798000000eb00000f7800d4
:1031dc000e0037001e0078009e009000008040001a
:1031ec00104078000054a0000000fb001006b10055
:1031fc00f90f50000400360060572900b701070092
:10320c000040eb00050037001e0fe8001e007800a0
:10321c00e20f5000efff340010c0b3000080fa0042
:10322c00000006000000fa00d05a29003040880047
:10323c00c082a8006800a8006000a800c882a8008e
:10324c006820a8006020a800c042a8006bc0a8009d
:10325c0063c0a800c902a9000080eb0060198800b7
:10326c0061058000f0ff28008080600000002600cf
:10327c0001007000600588008660a9009660a800b7
:10328c0081e0a9000080fa00000006000000fa00ae
:10329c00101680004200de00614060000080fb00e0
:1032ac0000408800101680004400de006140600081
:1032bc000080fb0010408800501680004400de00a7
:1032cc00614060000080fb00204088000080fa0014
:1032dc00000006000200fa00000f7800cd02a800e2
:1032ec001e007800cf80de0021030700cd02a9006c
:1032fc001e007800cf80de001d0307000080fa005e
:10330c00000006000000fa00205b29007301070092
:10331c00cd02a9000140fe00401f2000010020004a
:10332c0013030700d9ff070050408000e10f500045
:10333c0003003a000a28ef000700070004003700da
:10334c000828ef000a28ef000c28ef00edff07001b
:10335c000080fa00000006000200fa000e28ef00c0
:10336c00caff0700105e29005c01070000602900fd
:10337c005a010700cd02a800b1010700004f7800e8
:10338c0030408000104078009e4f500003003a00ff
:10339c00beff07000500070002003700bbff070057
:1033ac00d8ff07000080fa00000006000400fa00b5
:1033bc00b6ff070050632900480107000000eb002e
:1033cc00000f78000040eb002047980012003700f7
:1033dc003c02070020479800304080000000e800c5
:1033ec00904078002e40900080cf500001003a00b1
:1033fc0016000700cd02a800401f2000010020008d
:10340c00db020700cd02a900401f200001002000b4
:10341c00d70207001e0fe800304080000000e800d3
:10342c00904078002e40900080cf50000400320075
:10343c00200320009e007800808f5000e4ff3a00ab
:10344c00b0ff07000080fa00000006000400fa003c
:10345c008eff070040662900200107000000eb00ea
:10346c00000f78000040eb00204798001200370056
:10347c001402070020479800304080000080e800cc
:10348c00904078002e40900080cf500001003a0010
:10349c0016000700cd02a800c01220000100200079
:1034ac00b3020700cd02a900c012200001002000c9
:1034bc00af0207001e0fe800304080000080e800db
:1034cc00904078002e40900080cf500004003200d5
:1034dc00200320009e007800808f5000e4ff3a000b
:1034ec0088ff07000080fa00000006000400fa00c4
:1034fc0066ff070030692900f80007000000eb00a8
:10350c00000f78000000eb00100798002200370035
:10351c0047020700100798001e0090006900b900d0
:10352c0080007800f03f20000001780011000900b5
:10353c008280d800100798001e00900082010700be
:10354c00cd02a800800c200001002000880207009a
:10355c00cd02a900800c200001002000840207008d
:10356c003040800063004000104078000000fb00f9
:10357c000003b100800078001e009000808f500086
:10358c0004003a00706d2900d40007002c010700dc
:10359c00110007001e0fe80030408000630040005f
:1035ac00104078000000fb000003b10080007800a0
:1035bc001e009000808f5000040032002003200079
:1035cc009e007800808f5000d1ff3a004dff07001d
:1035dc000080fa00000006000000fa001000200035
:1035ec007040880090702900bc00070030732900df
:1035fc00ba00070090742900b80007004076290033
:10360c00b60007000140fe0020ff0700401f20000d
:10361c00010020005602070020782900af000700a7
:10362c0040408000480107005040800046010700e0
:10363c00604080004401070040408000e10f5000d2
:10364c0003003a000828ef0043ff07000d00370085
:10365c0050408000e10f500003003a000a28ef00b0
:10366c000a0007000700370060408000e10f50009f
:10367c0003003a000c28ef004e0007000100370051
:10368c0020ff07000080fa00000006000c00fa0082
:10369c002079290091000700e90007000000fb00d9
:1036ac0020079800707c29008c000700e4000700bc
:1036bc000000fb0030079800d07f2900870007002e
:1036cc00df0007000000fb00400798002083290062
:1036dc00820007000040eb00004f7800200037000c
:1036ec00d3010700100798001e0090006900b90074
:1036fc0080007800f03f20000001780011000900e4
:10370c008280d800100798001e0090000e01070060
:10371c00a085290071000700c9000700004f780040
:10372c0090c7b3009e40780080cf500004003a0050
:10373c001e0090000003b000500798000c003700ea
:10374c00e0c6b3009e40780080cf500003003200ea
:10375c0010882900610007000100370000000000fc
:10376c0090c7b3009e40780080cf5000dcff3a0039
:10377c00208a290059000700640047005700070001
:10378c00108b2900550007003040800053000700c3
:10379c00e4004700304080007dfa0700508c29007f
:1037ac004e000700304080004c0007000080fa00fb
:1037bc00000006000000fa000080fa00000006007d
:1037cc000000fa0031a2a9003182a9003162a900df
:1037dc0081118000f0cf2f000080600080118800e4
:1037ec0030e2a90030c2a90030a2a9003082a900a1
:1037fc003062a8008111800090ff2f0000806000d3
:10380c00801188003002a900113a800000002700c6
:10381c008080600000002600808f500003003a007a
:10382c00c0002000c011880010003700113a800041
:10383c00000027008080600000002500808f500071
:10384c0003003a00c0002000c011880007003700b8
:10385c00113a800000002700008060000000e000aa
:10386c0002003a0070062000c011880033e2a90063
:10387c0033a2a80033c2a9003362a9003342a900c5
:10388c0091118000f0f32f000080600090118800ef
:10389c0032a2a90087e0a90091058000f0ff280062
:1038ac0080806000000023000100700090058800fb
:1038bc0097e0a80087c0a90091058000f08f2f0029
:1038cc000080600000a0a0009005880097c0a800b0
:1038dc0031e2a8000080fa00000006000400fa00a3
:1038ec00100798000000eb00000f7800060037006e
:1038fc001e0090001e0040001040780011002000b7
:10390c00070007001e0fe8001e00900027fa0700b2
:10391c009e0f5000f6ff31000080fa0000000600f8
:10392c000400fa00004f7800110798003342a800f9
:10393c000b003700000000009111800000202000d7
:10394c00008060000000e000fbff3a001e00fb005e
:10395c00a01188001e0090000000e90010079800dc
:10396c001e0090000000e000f2ff3a000000000092
:10397c009111800000102000008060000000e00029
:10398c00fbff32003342a9000080fa000000060061
:10399c000800fa0020079800614798000000eb002f
:1039ac00000f78002100370021c8bf00e14f500004
:1039bc001e003a0020c8bf00ff4f50001800360010
:1039cc000182200091407800e0c7b30080cf500006
:1039dc0013003e006e4090000080fb000080e90068
:1039ec009e0f500004003100a08d2900bbff070082
:1039fc002168ef00100037002e0090001e004000e0
:103a0c000182200091407800014878001e0fe800e8
:103a1c0020c8bf0011002000c1ff07003222a900fe
:103a2c0020c8bf00204798002168ef002e4090006e
:103a3c00ed4f5000dcff3a000080fa000000060059
:103a4c000200fa001100200000c2b300b4ff07000e
:103a5c001b00370021c8bf00e14f500018003a008e
:103a6c0020c8bf00ed4f500003003a002168ef0062
:103a7c001e4078001500370020c8bf00ff4f5000d3
:103a8c000d0036000182200091407800e0c7b300a1
:103a9c0080cf500008003e001100200080c0b30011
:103aac009fff070020c8bf00004f780020c8bf0050
:103abc00110020009aff07003222a9002168ef00b4
:103acc001e407800ed4f5000e2ff3a000080fa00f3
:103adc00000006000400fa00100798009e009000f9
:103aec00d0cc2c000008b8004308de00104798002a
:103afc0011002000b0c5b30089ff07000040eb00a7
:103b0c00004f78000400370011002000c0c7b3003c
:103b1c0083ff07001e4fe8001e4090009e40780077
:103b2c0080cf5000f8ff390011002000d0c5b30041
:103b3c007bff070011002000a0c0b30078ff070036
:103b4c000080fa00000006000800fa00889fbe0002
:103b5c00300798000040eb00004f78001100200067
:103b6c0000c2b3006eff07001e0037003e0090003d
:103b7c008000eb00f2f207000004be001e80fb0088
:103b8c0064001000cf80de00eaf207000001be00e6
:103b9c000000200001122400e4f407000001be0024
:103bac000800be00fdf20700c7f2070010079800de
:103bbc001e019000d0cc2c000010b8004308de0091
:103bcc006a00b900000078000000510040479800de
:103bdc004e4090000043b0001100200050ff070041
:103bec001e4fe8001e407800e44f5000dfff360007
:103bfc001100200000c2b30049ff07004f04be00b3
:103c0c000080fa00000006000400fa00100798007b
:103c1c000040eb00104798001100200000c2b300d8
:103c2c003fff07001100200000c3b3003cff07005a
:103c3c001100200080c7b30039ff070030c0b3006b
:103c4c00004f7800150037001e00fb004200dd001d
:103c5c009e0090000008de00004078006f4060007d
:103c6c00104798001e409000e94f500004003400ab
:103c7c001e4090007043b0001047980003003700be
:103c8c001e4090000043b000104798001100200027
:103c9c001e40900022ff07001e4fe9001e407800d6
:103cac000004e000e8ff3d001100200000c2b3005a
:103cbc001bff07000000eb00100798000080fa00c3
:103ccc00000006000200fa000040eb00004f7800f4
:103cdc001100200000c2b30011ff070021c8bf0073
:103cec00e14f500018003a0020c8bf00ed4f5000c3
:103cfc0003003a002168ef001e40780013003700e3
:103d0c0020c8bf00ff4f50000d003600018220007c
:103d1c0091407800e0c7b30080cf500008003e000f
:103d2c001100200080c0b300fdfe070020c8bf00ba
:103d3c00004f780020c8bf0011002000f8fe0700db
:103d4c003222a9002168ef001e4078000080fa00a2
:103d5c00000006000400fa00100798001e009000f6
:103d6c0001022000810f50000b003200411f200087
:103d7c00810f500005003200e80f500009003a0096
:103d8c000040eb00004f78000800370060c6b3001d
:103d9c00004f78000500370050c5b300004f780085
:103dac000200370050c5b300004f780011028000ac
:103dbc00000e20000100700010028800213a8000e3
:103dcc00f08f2f0000806000203a88001e01fb005d
:103ddc0080072000a109200033742000804978005e
:103dec00814978008249780012002000600420008c
:103dfc0071052000237420008049780081497800e7
:103e0c008249780000000000103a800061006000d8
:103e1c000000e000fcff3a0011028000f0f12f00de
:103e2c0000806000100288000080fa00000006008c
:103e3c000200fa0021e3a80001198000f0cf2f0046
:103e4c00008060000019880001198000000e20001d
:103e5c0001007000001988002043a900111980008e
:103e6c00f0ff210000806000101988002343a90096
:103e7c002223a9002203a90025e3a900211980000f
:103e8c00f00f2e008080600000a020000100700068
:103e9c002019880028e3a9004119800000ff2f0099
:103eac00008060005000b300401988002ca3a900ca
:103ebc002023a800000000000019800061006000b1
:103ecc000000e000fcff320001188000010f7800b8
:103edc002023a90021e3a9001e0078000080fa002d
:043eec0000000600cc
:020000040000fa
:103ef000100800000a000000000000002008000078
:103f00000200000000000000220800000200000083
:103f10000000000000080000100000000000000089
:103f20001a08000006000000020000004695560036
:103f300095669500240800000200000000000000c3
:103f400026080000180000000200000000008000a9
:103f50003f000000c03f000000000000dccfd100a7
:103f60003500000000000000c0153f003e080000c2
:0c3f700002000000000000000000000043
:020000040000fa
:103f7c000400fa00008fbe001061a9001021a900f6
:103f8c0081088000f0fc2f00008060000050a00031
:103f9c008008880011a1a9003105800000002700cd
:103fac00010070003005880084e0a90094e0a800ae
:103fbc001e0078004200dd00600888000621ef003a
:103fcc0011e1a8000140fe000080fa00000006008c
:103fdc000000fa00401f20005eff070091fc070064
:103fec00f7fd07000080eb0060198800dafc070081
:043ffc00feff37008d
:020000040000fa
:0200000401f009
:04000c008700000069
:020000040000fa
:0200000401f009
:040010007b00000071
:020000040000fa
:0200000401f009
:040014005f00000089
:020000040000fa
:0200000401f009
:04001c00c20000001e
:00000001FF
