:020000040000fa
:080000000002040000000000f2
:020000040000fa
:0400080030030000c1
:020000040000fa
:04000c0030030000bd
:020000040000fa
:0400100030030000b9
:020000040000fa
:0400140030030000b5
:020000040000fa
:0400180030030000b1
:020000040000fa
:04001c0030030000ad
:020000040000fa
:0400200030030000a9
:020000040000fa
:0400240030030000a5
:020000040000fa
:0400280030030000a1
:020000040000fa
:04002c00300300009d
:020000040000fa
:040030003003000099
:020000040000fa
:040034003003000095
:020000040000fa
:040038003003000091
:020000040000fa
:04003c00300300008d
:020000040000fa
:040040003003000089
:020000040000fa
:04004400e6020000d0
:020000040000fa
:040048003003000081
:020000040000fa
:04004c00300300007d
:020000040000fa
:040050003003000079
:020000040000fa
:040054003003000075
:020000040000fa
:040058003003000071
:020000040000fa
:04005c00300300006d
:020000040000fa
:040060003003000069
:020000040000fa
:040064003003000065
:020000040000fa
:040068003003000061
:020000040000fa
:04006c00300300005d
:020000040000fa
:040070003003000059
:020000040000fa
:04007400f80200008e
:020000040000fa
:040078003003000051
:020000040000fa
:04007c00300300004d
:020000040000fa
:040080003003000049
:020000040000fa
:040084003003000045
:020000040000fa
:040088003003000041
:020000040000fa
:04008c00300300003d
:020000040000fa
:040090003003000039
:020000040000fa
:040094003003000035
:020000040000fa
:040098003003000031
:020000040000fa
:04009c00300300002d
:020000040000fa
:0400a000c802000092
:020000040000fa
:0400a400de02000078
:020000040000fa
:0400a8003003000021
:020000040000fa
:0400ac00300300001d
:020000040000fa
:0400b0003003000019
:020000040000fa
:0400b4003003000015
:020000040000fa
:0400b8003003000011
:020000040000fa
:0400bc00300300000d
:020000040000fa
:0400c0003003000009
:020000040000fa
:0400c4003003000005
:020000040000fa
:0400c8003003000001
:020000040000fa
:0400cc0030030000fd
:020000040000fa
:0400d00030030000f9
:020000040000fa
:0400d40030030000f5
:020000040000fa
:0400d80030030000f1
:020000040000fa
:0400dc0030030000ed
:020000040000fa
:0400e00030030000e9
:020000040000fa
:0400e40030030000e5
:020000040000fa
:0400e80030030000e1
:020000040000fa
:0400ec0030030000dd
:020000040000fa
:0400f00030030000d9
:020000040000fa
:0400f40030030000d5
:020000040000fa
:0400f80030030000d1
:020000040000fa
:0400fc0030030000cd
:020000040000fa
:0401000030030000c8
:020000040000fa
:0401040030030000c4
:020000040000fa
:0401080030030000c0
:020000040000fa
:04010c0030030000bc
:020000040000fa
:0401100030030000b8
:020000040000fa
:0401140030030000b4
:020000040000fa
:0401180030030000b0
:020000040000fa
:04011c0030030000ac
:020000040000fa
:0401200030030000a8
:020000040000fa
:0401240030030000a4
:020000040000fa
:0401280030030000a0
:020000040000fa
:04012c00300300009c
:020000040000fa
:040130003003000098
:020000040000fa
:040134003003000094
:020000040000fa
:040138003003000090
:020000040000fa
:04013c00300300008c
:020000040000fa
:040140003003000088
:020000040000fa
:040144003003000084
:020000040000fa
:040148003003000080
:020000040000fa
:04014c00300300007c
:020000040000fa
:040150003003000078
:020000040000fa
:040154003003000074
:020000040000fa
:040158003003000070
:020000040000fa
:04015c00300300006c
:020000040000fa
:0402080030030000bf
:020000040000fa
:04020c0030030000bb
:020000040000fa
:0402100030030000b7
:020000040000fa
:0402140030030000b3
:020000040000fa
:0402180030030000af
:020000040000fa
:04021c0030030000ab
:020000040000fa
:0402200030030000a7
:020000040000fa
:0402240030030000a3
:020000040000fa
:04022800300300009f
:020000040000fa
:04022c00300300009b
:020000040000fa
:040230003003000097
:020000040000fa
:040234003003000093
:020000040000fa
:04023800300300008f
:020000040000fa
:04023c00300300008b
:020000040000fa
:040240003003000087
:020000040000fa
:04024400e6020000ce
:020000040000fa
:04024800300300007f
:020000040000fa
:04024c00300300007b
:020000040000fa
:040250003003000077
:020000040000fa
:040254003003000073
:020000040000fa
:04025800300300006f
:020000040000fa
:04025c00300300006b
:020000040000fa
:040260003003000067
:020000040000fa
:040264003003000063
:020000040000fa
:04026800300300005f
:020000040000fa
:04026c00300300005b
:020000040000fa
:040270003003000057
:020000040000fa
:04027400f80200008c
:020000040000fa
:04027800300300004f
:020000040000fa
:04027c00300300004b
:020000040000fa
:040280003003000047
:020000040000fa
:040284003003000043
:020000040000fa
:04028800300300003f
:020000040000fa
:04028c00300300003b
:020000040000fa
:040290003003000037
:020000040000fa
:040294003003000033
:020000040000fa
:04029800300300002f
:020000040000fa
:04029c00300300002b
:020000040000fa
:0402a000c802000090
:020000040000fa
:0402a400de02000076
:020000040000fa
:0402a800300300001f
:020000040000fa
:0402ac00300300001b
:020000040000fa
:0402b0003003000017
:020000040000fa
:0402b4003003000013
:020000040000fa
:0402b800300300000f
:020000040000fa
:0402bc00300300000b
:020000040000fa
:0402c0003003000007
:020000040000fa
:0402c4003003000003
:020000040000fa
:0402c80030030000ff
:020000040000fa
:0402cc0030030000fb
:020000040000fa
:0402d00030030000f7
:020000040000fa
:0402d40030030000f3
:020000040000fa
:0402d80030030000ef
:020000040000fa
:0402dc0030030000eb
:020000040000fa
:0402e00030030000e7
:020000040000fa
:0402e40030030000e3
:020000040000fa
:0402e80030030000df
:020000040000fa
:0402ec0030030000db
:020000040000fa
:0402f00030030000d7
:020000040000fa
:0402f40030030000d3
:020000040000fa
:0402f80030030000cf
:020000040000fa
:0402fc0030030000cb
:020000040000fa
:0403000030030000c6
:020000040000fa
:0403040030030000c2
:020000040000fa
:0403080030030000be
:020000040000fa
:04030c0030030000ba
:020000040000fa
:0403100030030000b6
:020000040000fa
:0403140030030000b2
:020000040000fa
:0403180030030000ae
:020000040000fa
:04031c0030030000aa
:020000040000fa
:0403200030030000a6
:020000040000fa
:0403240030030000a2
:020000040000fa
:04032800300300009e
:020000040000fa
:04032c00300300009a
:020000040000fa
:040330003003000096
:020000040000fa
:040334003003000092
:020000040000fa
:04033800300300008e
:020000040000fa
:04033c00300300008a
:020000040000fa
:040340003003000086
:020000040000fa
:040344003003000082
:020000040000fa
:04034800300300007e
:020000040000fa
:04034c00300300007a
:020000040000fa
:040350003003000076
:020000040000fa
:040354003003000072
:020000040000fa
:04035800300300006e
:020000040000fa
:04035c00300300006a
:020000040000fa
:10040000cf8120000edf20000e01880000000000d8
:10041000000020000000e000020032000001200087
:1004200020028800140007008f0007000000e00091
:1004300003003a0080602000010020000200370025
:100440000000200001002000810f70000100320038
:1004500014000700000020000000e000020032004d
:10046000000002000000000034060200000000004e
:100470000040da000000fe004440a9000001200016
:100480000000e0000300320000002000a00188000e
:100490004440a800000006008a1f78008b1f7800e7
:1004a0000000060091018800800478000000eb0045
:1004b0001a003700e284440032a0b4009905ba0063
:1004c000e284440032a0b4009906ba00e2844400f9
:1004d00032a0b4000006eb00476fde00fd07b2005b
:1004e000636ce10003003a00ebff07000000eb0043
:1004f0000a003700606ce10004003a00005deb0088
:100500008b05e900fdff3e00040037006168e10053
:10051000010032000086eb000b00070019c7ba008b
:100520001905ba000e04e00003003a000a00e000da
:10053000e0ff3a0000000600fe07b2009e018800be
:100540008a047800f5ff3700395dba008b05e900b1
:100550000c003200295dba008b05e900080032006a
:100560000c00e00003003a00e284440032a0b40032
:10057000f5ff370019ddba008b05e900faff3a00f4
:100580008904e800e184440032a0b40000000600c1
:10059000801f78000000fa0087c0a900b011800019
:1005a0000040780018e8b70010c0b30019e8b700a1
:1005b0000080fa004f007800004006000000fa00ba
:1005c00087e0a9000080fa0000400600801f780044
:1005d0000000fa0084e0a90011e1a9001000200049
:1005e000d04088000080fa004f00780000400600ec
:1005f000809fbe000200fa0081408000010f780059
:100600001e007800e10f500005003a0060408000b5
:100610000000e00002003a001028ef000800370058
:100620001e0078000000e00005003a0060408000f5
:100630000000e00002003a00100020008040880026
:1006400081408000010f780010002000a040880049
:100650008660a9000080fa004f00be00004006003e
:100660000040da000000fe00000005008000780075
:10067000040037003104e00002003a00000051009d
:1006800000000600010178000108a300f9ff3a000c
:100690008101780031017800f4ef2f00020242005e
:1006a0000281ea00020162000408280004016100de
:1006b000f7ff320083007800010178003104e00088
:0c06c000fdff3a000000510000000600a1
:020000040000fa
:1006cc000a7400006f6f0000206c00006f6e000059
:1006dc00670a00000d000000446f00006700000076
:020000040000fa
:1006ec000000fa0031a2a9003182a9003162a900f0
:1006fc0081118000f0cf2f000080600080118800f5
:10070c0030e2a90030c2a90030a2a9003082a900b1
:10071c003062a8008111800090ff2f0000806000e3
:10072c00801188003002a900113a800000002700d7
:10073c008080600000002600808f500003003a008b
:10074c00c0002000c011880010003700113a800052
:10075c00000027008080600000002500808f500082
:10076c0003003a00c0002000c011880007003700c9
:10077c00113a800000002700008060000000e000bb
:10078c0002003a0070062000c011880033e2a90074
:10079c0033a2a80033c2a9003362a9003342a900d6
:1007ac0091118000f0f32f00008060009011880000
:1007bc0032a2a90087e0a90091058000f0ff280073
:1007cc00808060000000230001007000900588000c
:1007dc0097e0a80087c0a90091058000f08f2f003a
:1007ec000080600000a0a0009005880097c0a800c1
:1007fc0031e2a8000080fa00000006000400fa00b4
:10080c00100798000000eb00000f7800060037007e
:10081c001e0090001e0040001040780011002000c7
:10082c00070007001e0fe8001e0090008cff070059
:10083c009e0f5000f6ff31000080fa000000060009
:10084c000400fa00004f7800110798003342a8000a
:10085c000b003700000000009111800000202000e8
:10086c00008060000000e000fbff3a001e00fb006f
:10087c00a01188001e0090000000e90010079800ed
:10088c001e0090000000e000f2ff3a0000000000a3
:10089c009111800000102000008060000000e0003a
:1008ac00fbff32003342a9000080fa000000060072
:1008bc000800fa0020079800614798000000eb0040
:1008cc00000f78002100370019c8bf00e14f50001d
:1008dc001e003a0018c8bf00ff4f50001800360029
:1008ec008181200091407800e0c7b30080cf500098
:1008fc0013003e006e4090000080fb000080e90079
:10090c009e0f50000400310060362800bbff07002a
:10091c001968ef00100037002e0090001e004000f8
:10092c008181200091407800014878001e0fe8007a
:10093c0018c8bf0011002000c1ff07003222a90017
:10094c0018c8bf00204798001968ef002e4090008f
:10095c00ed4f5000dcff3a000080fa00000006006a
:10096c000200fa001100200000c2b300b4ff07001f
:10097c001b00370019c8bf00e14f500018003a00a7
:10098c0018c8bf00ed4f500003003a001968ef0083
:10099c001e4078001500370018c8bf00ff4f5000ec
:1009ac000d0036008181200091407800e0c7b30033
:1009bc0080cf500008003e001100200080c0b30022
:1009cc009fff070018c8bf00004f780018c8bf0071
:1009dc00110020009aff07003222a9001968ef00cd
:1009ec001e407800ed4f5000e2ff3a000080fa0004
:1009fc00000006000400fa00100798001e0090008a
:100a0c0001022000810f50000b003200411f20001a
:100a1c00810f500005003200e80f500009003a0029
:100a2c000040eb00004f78000800370060c6b300b0
:100a3c00004f78000500370050c5b300004f780018
:100a4c000200370050c5b300004f7800110280003f
:100a5c00000e20000100700010028800213a800076
:100a6c00f08f2f0000806000203a88001e01fb00f0
:100a7c0080072000a10920003374200080497800f1
:100a8c00814978008249780012002000600420001f
:100a9c00710520002374200080497800814978007a
:100aac008249780000000000103a8000610060006c
:100abc000000e000fcff3a0011028000f0f12f0072
:100acc0000806000100288000080fa000000060020
:100adc000000fa00c082a8006800a8006000a8000e
:100aec00c882a8006820a8006020a800c042a80006
:100afc006bc0a80063c0a800c902a9000080eb006d
:100b0c006019880061058000f0ff2800808060007b
:100b1c000000260001007000600588008660a900b6
:100b2c009660a80081e0a9000080fa000000060091
:100b3c000000fa00101680004400de0061406000e6
:100b4c000080fb00604088000080fa000000060076
:100b5c000000fa00f6ff0700804080000000e00073
:100b6c000b00320080408000e10f500008003a007a
:100b7c00cd02a800803e20000100200009000700e3
:100b8c00cd02a900803e20000100200005000700d6
:100b9c000080fa00000006000000fa000080fa0055
:100bac00000006000400fa00008fbe001061a900ce
:100bbc001021a90081088000f0fc2f00008060004b
:100bcc000050a0008008880011a1a9003105800008
:100bdc0000002700010070003005880084e0a900a7
:100bec0094e0a8001e0078004200dd006008880038
:100bfc000621ef0011e1a8000140fe000080fa0080
:040c0c0000000600de
:020000040000fa
:100c1000000800000a0000000000000016080000a4
:100c200002000000020000007283000018080000ab
:100c300002000000000000001a080000020000008e
:100c4000000000000a08000008000000000000008a
:100c50001208000004000000020000000100010072
:080c600000000000000000008c
:020000040000fa
:100c68000000fa00401f200063ff07009dfe0700f8
:100c78000080eb0060198800b6ff0700feff370010
:020000040000fa
:0200000401f009
:04000c008700000069
:020000040000fa
:0200000401f009
:040010007b00000071
:020000040000fa
:0200000401f009
:040014005f00000089
:020000040000fa
:0200000401f009
:04001c00c20000001e
:00000001FF
